{
  "contractName": "FundsSplitter",
  "abi": [
    {
      "constant": true,
      "inputs": [
        {
          "name": "",
          "type": "address"
        }
      ],
      "name": "balances",
      "outputs": [
        {
          "name": "",
          "type": "uint256"
        }
      ],
      "payable": false,
      "stateMutability": "view",
      "type": "function"
    },
    {
      "constant": false,
      "inputs": [],
      "name": "unpause",
      "outputs": [],
      "payable": false,
      "stateMutability": "nonpayable",
      "type": "function"
    },
    {
      "constant": true,
      "inputs": [],
      "name": "paused",
      "outputs": [
        {
          "name": "",
          "type": "bool"
        }
      ],
      "payable": false,
      "stateMutability": "view",
      "type": "function"
    },
    {
      "constant": false,
      "inputs": [],
      "name": "pause",
      "outputs": [],
      "payable": false,
      "stateMutability": "nonpayable",
      "type": "function"
    },
    {
      "constant": true,
      "inputs": [],
      "name": "owner",
      "outputs": [
        {
          "name": "",
          "type": "address"
        }
      ],
      "payable": false,
      "stateMutability": "view",
      "type": "function"
    },
    {
      "inputs": [],
      "payable": false,
      "stateMutability": "nonpayable",
      "type": "constructor"
    },
    {
      "anonymous": false,
      "inputs": [
        {
          "indexed": true,
          "name": "from",
          "type": "address"
        },
        {
          "indexed": false,
          "name": "receiver1",
          "type": "address"
        },
        {
          "indexed": false,
          "name": "receiver2",
          "type": "address"
        },
        {
          "indexed": false,
          "name": "amount",
          "type": "uint256"
        }
      ],
      "name": "LogSplit",
      "type": "event"
    },
    {
      "anonymous": false,
      "inputs": [
        {
          "indexed": true,
          "name": "who",
          "type": "address"
        },
        {
          "indexed": false,
          "name": "amount",
          "type": "uint256"
        }
      ],
      "name": "LogWithdrawl",
      "type": "event"
    },
    {
      "anonymous": false,
      "inputs": [
        {
          "indexed": false,
          "name": "initiator",
          "type": "address"
        }
      ],
      "name": "LogPause",
      "type": "event"
    },
    {
      "anonymous": false,
      "inputs": [
        {
          "indexed": false,
          "name": "initiator",
          "type": "address"
        }
      ],
      "name": "LogUnPause",
      "type": "event"
    },
    {
      "constant": false,
      "inputs": [
        {
          "name": "receiver1",
          "type": "address"
        },
        {
          "name": "receiver2",
          "type": "address"
        }
      ],
      "name": "splitFunds",
      "outputs": [
        {
          "name": "success",
          "type": "bool"
        }
      ],
      "payable": true,
      "stateMutability": "payable",
      "type": "function"
    },
    {
      "constant": false,
      "inputs": [
        {
          "name": "amount",
          "type": "uint256"
        }
      ],
      "name": "withdrawFunds",
      "outputs": [
        {
          "name": "success",
          "type": "bool"
        }
      ],
      "payable": false,
      "stateMutability": "nonpayable",
      "type": "function"
    }
  ],
  "bytecode": "0x608060405234801561001057600080fd5b50336000806101000a81548173ffffffffffffffffffffffffffffffffffffffff021916908373ffffffffffffffffffffffffffffffffffffffff160217905550610dfb806100606000396000f300608060405260043610610083576000357c0100000000000000000000000000000000000000000000000000000000900463ffffffff168063155dd5ee1461008857806327e235e3146100cd5780632accf2f7146101245780633f4ba83a146101925780635c975abb146101a95780638456cb59146101d85780638da5cb5b146101ef575b600080fd5b34801561009457600080fd5b506100b360048036038101908080359060200190929190505050610246565b604051808215151515815260200191505060405180910390f35b3480156100d957600080fd5b5061010e600480360381019080803573ffffffffffffffffffffffffffffffffffffffff169060200190929190505050610534565b6040518082815260200191505060405180910390f35b610178600480360381019080803573ffffffffffffffffffffffffffffffffffffffff169060200190929190803573ffffffffffffffffffffffffffffffffffffffff16906020019092919050505061054c565b604051808215151515815260200191505060405180910390f35b34801561019e57600080fd5b506101a7610a07565b005b3480156101b557600080fd5b506101be610bce565b604051808215151515815260200191505060405180910390f35b3480156101e457600080fd5b506101ed610be1565b005b3480156101fb57600080fd5b50610204610daa565b604051808273ffffffffffffffffffffffffffffffffffffffff1673ffffffffffffffffffffffffffffffffffffffff16815260200191505060405180910390f35b60008060149054906101000a900460ff161515156102cc576040517f08c379a00000000000000000000000000000000000000000000000000000000081526004018080602001828103825260198152602001807f5b455230355d20436f6e7472616374206973207061757365640000000000000081525060200191505060405180910390fd5b6000821115156102db57600080fd5b6000600160003373ffffffffffffffffffffffffffffffffffffffff1673ffffffffffffffffffffffffffffffffffffffff16815260200190815260200160002054111515610392576040517f08c379a00000000000000000000000000000000000000000000000000000000081526004018080602001828103825260168152602001807f5b455230335d20496e76616c696420616464726573730000000000000000000081525060200191505060405180910390fd5b81600160003373ffffffffffffffffffffffffffffffffffffffff1673ffffffffffffffffffffffffffffffffffffffff1681526020019081526020016000205410151515610449576040517f08c379a00000000000000000000000000000000000000000000000000000000081526004018080602001828103825260178152602001807f5b455230345d204e6f7420656e6f7567682046756e647300000000000000000081525060200191505060405180910390fd5b81600160003373ffffffffffffffffffffffffffffffffffffffff1673ffffffffffffffffffffffffffffffffffffffff168152602001908152602001600020600082825403925050819055503373ffffffffffffffffffffffffffffffffffffffff167f63734cbaa2e40b5ba26fdbc5eee98dedeeaf268050a41768390bd0dbb20e3d27836040518082815260200191505060405180910390a23373ffffffffffffffffffffffffffffffffffffffff166108fc839081150290604051600060405180830381858888f1935050505015801561052a573d6000803e3d6000fd5b5060019050919050565b60016020528060005260406000206000915090505481565b600080600060149054906101000a900460ff161515156105d4576040517f08c379a00000000000000000000000000000000000000000000000000000000081526004018080602001828103825260198152602001807f5b455230355d20436f6e7472616374206973207061757365640000000000000081525060200191505060405180910390fd5b600073ffffffffffffffffffffffffffffffffffffffff168473ffffffffffffffffffffffffffffffffffffffff1614151515610679576040517f08c379a00000000000000000000000000000000000000000000000000000000081526004018080602001828103825260168152602001807f5b455230325d20496e76616c696420616464726573730000000000000000000081525060200191505060405180910390fd5b600073ffffffffffffffffffffffffffffffffffffffff168373ffffffffffffffffffffffffffffffffffffffff161415151561071e576040517f08c379a00000000000000000000000000000000000000000000000000000000081526004018080602001828103825260168152602001807f5b455230325d20496e76616c696420616464726573730000000000000000000081525060200191505060405180910390fd5b8273ffffffffffffffffffffffffffffffffffffffff168473ffffffffffffffffffffffffffffffffffffffff16141515156107c2576040517f08c379a00000000000000000000000000000000000000000000000000000000081526004018080602001828103825260168152602001807f5b455230325d20496e76616c696420616464726573730000000000000000000081525060200191505060405180910390fd5b60003411151561083a576040517f08c379a00000000000000000000000000000000000000000000000000000000081526004018080602001828103825260158152602001807f5b455230345d20496e76616c69642056616c756573000000000000000000000081525060200191505060405180910390fd5b60023481151561084657fe5b04905080600160008673ffffffffffffffffffffffffffffffffffffffff1673ffffffffffffffffffffffffffffffffffffffff1681526020019081526020016000206000828254019250508190555080600160008573ffffffffffffffffffffffffffffffffffffffff1673ffffffffffffffffffffffffffffffffffffffff1681526020019081526020016000206000828254019250508190555060016002348115156108f157fe5b0614156109465760018060003373ffffffffffffffffffffffffffffffffffffffff1673ffffffffffffffffffffffffffffffffffffffff168152602001908152602001600020600082825401925050819055505b3373ffffffffffffffffffffffffffffffffffffffff167f5861cc23de8cab7630160dc0ee2c1e9aa2a0f1498f73c387807c0100e6684da7858534604051808473ffffffffffffffffffffffffffffffffffffffff1673ffffffffffffffffffffffffffffffffffffffff1681526020018373ffffffffffffffffffffffffffffffffffffffff1673ffffffffffffffffffffffffffffffffffffffff168152602001828152602001935050505060405180910390a2600191505092915050565b6000809054906101000a900473ffffffffffffffffffffffffffffffffffffffff1673ffffffffffffffffffffffffffffffffffffffff163373ffffffffffffffffffffffffffffffffffffffff16141515610acb576040517f08c379a000000000000000000000000000000000000000000000000000000000815260040180806020018281038252601c8152602001807f5b455230315d20496e76616c6964206f776e657220616464726573730000000081525060200191505060405180910390fd5b600060149054906101000a900460ff161515610b4f576040517f08c379a000000000000000000000000000000000000000000000000000000000815260040180806020018281038252601d8152602001807f5b455230365d20436f6e7472616374206973206e6f742070617573656400000081525060200191505060405180910390fd5b60008060146101000a81548160ff0219169083151502179055507fba6b1ab6db5108ba754928561df4d9b8d42fa3003d8f810ba24d80c7911010eb33604051808273ffffffffffffffffffffffffffffffffffffffff1673ffffffffffffffffffffffffffffffffffffffff16815260200191505060405180910390a1565b600060149054906101000a900460ff1681565b6000809054906101000a900473ffffffffffffffffffffffffffffffffffffffff1673ffffffffffffffffffffffffffffffffffffffff163373ffffffffffffffffffffffffffffffffffffffff16141515610ca5576040517f08c379a000000000000000000000000000000000000000000000000000000000815260040180806020018281038252601c8152602001807f5b455230315d20496e76616c6964206f776e657220616464726573730000000081525060200191505060405180910390fd5b600060149054906101000a900460ff16151515610d2a576040517f08c379a00000000000000000000000000000000000000000000000000000000081526004018080602001828103825260198152602001807f5b455230355d20436f6e7472616374206973207061757365640000000000000081525060200191505060405180910390fd5b6001600060146101000a81548160ff0219169083151502179055507f89f564368ff47e464476d722faa29b55ce2a67fd70c8045bd94153879285a6d033604051808273ffffffffffffffffffffffffffffffffffffffff1673ffffffffffffffffffffffffffffffffffffffff16815260200191505060405180910390a1565b6000809054906101000a900473ffffffffffffffffffffffffffffffffffffffff16815600a165627a7a72305820a8b5dbf204eda4aa4fe26ef6695037ef361789dfc2b741cc5354dc19bf1974de0029",
  "source": "pragma solidity ^0.4.24;\r\n\r\nimport \"./Pausable.sol\";\r\n\r\n/**\r\n * @title Contract for keeping ledger of credit.\r\n * Credit will be divided into two and shall be assigned\r\n * to beneficiary 1 and beneficiary 2\r\n * Revision# 08: Incorporating Review comments by Rob.\r\n **/\r\ncontract FundsSplitter is Pausable {    \r\n      \r\n    mapping(address => uint) public balances;        \r\n    \r\n    event LogSplit(address indexed from, address receiver1, address receiver2, uint amount); /*Commit#4: Refactoring*/ \r\n    event LogWithdrawl(address indexed who, uint amount); /*Commit#3: Index withdrawal */        \r\n    \r\n\r\n\r\n    /**\r\n     * Procedure no longer depends on any arguments.\r\n     */ \r\n    constructor() public {       \r\n    }\r\n       \r\n    /**\r\n     * Refactored! Proecure will take receiver address and does \r\n     * not depends on the owner.\r\n     **/\r\n    function splitFunds(address receiver1, address receiver2) public payable whenNotPaused returns(bool success)  {                \r\n        require(receiver1 != address(0), \"[ER02] Invalid address\");\r\n        require(receiver2 != address(0), \"[ER02] Invalid address\");\r\n        require(receiver1 != receiver2, \"[ER02] Invalid address\");\r\n        require(msg.value > 0, \"[ER04] Invalid Values\");\r\n        uint amount = msg.value / 2;                \r\n        balances[receiver1] += amount;\r\n        balances[receiver2] += amount;\r\n        if(msg.value % 2 == 1) balances[msg.sender] += 1;\r\n        emit LogSplit(msg.sender, receiver1,receiver2, msg.value);\r\n        return true;\r\n    }\r\n\r\n    /**\r\n     * Procedure for withdrawing debited amount to the \r\n     * specific owner\r\n     * @param amount Funds to withdraw\r\n     */\r\n    function withdrawFunds(uint amount) whenNotPaused public returns(bool success){\r\n        require(amount > 0); // Funds can not be <= 0\r\n        require(balances[msg.sender] > 0, \"[ER03] Invalid address\");\r\n        require(balances[msg.sender] >= amount, \"[ER04] Not enough Funds\");\r\n        balances[msg.sender] -= amount;\r\n        emit LogWithdrawl(msg.sender, amount);\r\n        msg.sender.transfer(amount);\r\n        return true;\r\n    }\r\n    \r\n\r\n    \r\n}",
  "sourcePath": "/mnt/hgfs/Ethereum/Challenges/FundsSplitterContract/contracts/FundsSplitter.sol",
  "compiler": {
    "name": "solc",
    "version": "0.4.24+commit.e67f0147.Emscripten.clang"
  },
  "schemaVersion": "2.0.1",
  "updatedAt": "2018-07-11T18:16:21.888Z"
}