{
  "contractName": "FundsSplitter",
  "abi": [
    {
      "constant": true,
      "inputs": [],
      "name": "carol",
      "outputs": [
        {
          "name": "",
          "type": "address"
        }
      ],
      "payable": false,
      "stateMutability": "view",
      "type": "function"
    },
    {
      "constant": true,
      "inputs": [],
      "name": "carolBalance",
      "outputs": [
        {
          "name": "",
          "type": "uint256"
        }
      ],
      "payable": false,
      "stateMutability": "view",
      "type": "function"
    },
    {
      "constant": true,
      "inputs": [],
      "name": "bob",
      "outputs": [
        {
          "name": "",
          "type": "address"
        }
      ],
      "payable": false,
      "stateMutability": "view",
      "type": "function"
    },
    {
      "constant": true,
      "inputs": [],
      "name": "bobBalance",
      "outputs": [
        {
          "name": "",
          "type": "uint256"
        }
      ],
      "payable": false,
      "stateMutability": "view",
      "type": "function"
    },
    {
      "constant": true,
      "inputs": [],
      "name": "alice",
      "outputs": [
        {
          "name": "",
          "type": "address"
        }
      ],
      "payable": false,
      "stateMutability": "view",
      "type": "function"
    },
    {
      "inputs": [
        {
          "name": "bobAdd",
          "type": "address"
        },
        {
          "name": "carolAdd",
          "type": "address"
        }
      ],
      "payable": false,
      "stateMutability": "nonpayable",
      "type": "constructor"
    },
    {
      "anonymous": false,
      "inputs": [
        {
          "indexed": true,
          "name": "who",
          "type": "address"
        },
        {
          "indexed": false,
          "name": "ttlCr",
          "type": "uint256"
        },
        {
          "indexed": false,
          "name": "amtCr",
          "type": "uint256"
        }
      ],
      "name": "LogAccountDebit",
      "type": "event"
    },
    {
      "anonymous": false,
      "inputs": [
        {
          "indexed": true,
          "name": "who",
          "type": "address"
        },
        {
          "indexed": false,
          "name": "bobAdd",
          "type": "address"
        },
        {
          "indexed": false,
          "name": "carolAdd",
          "type": "address"
        }
      ],
      "name": "LogReset",
      "type": "event"
    },
    {
      "constant": false,
      "inputs": [],
      "name": "splitFunds",
      "outputs": [
        {
          "name": "succcess",
          "type": "bool"
        }
      ],
      "payable": true,
      "stateMutability": "payable",
      "type": "function"
    },
    {
      "constant": false,
      "inputs": [
        {
          "name": "addr",
          "type": "address"
        },
        {
          "name": "funds",
          "type": "uint256"
        }
      ],
      "name": "withdrawFunds",
      "outputs": [],
      "payable": false,
      "stateMutability": "nonpayable",
      "type": "function"
    },
    {
      "constant": true,
      "inputs": [
        {
          "name": "add",
          "type": "address"
        }
      ],
      "name": "getBalance",
      "outputs": [
        {
          "name": "balance",
          "type": "uint256"
        }
      ],
      "payable": false,
      "stateMutability": "view",
      "type": "function"
    }
  ],
  "bytecode": "0x608060405234801561001057600080fd5b50604051604080610a118339810180604052810190808051906020019092919080519060200190929190505050336000806101000a81548173ffffffffffffffffffffffffffffffffffffffff021916908373ffffffffffffffffffffffffffffffffffffffff16021790555081600160006101000a81548173ffffffffffffffffffffffffffffffffffffffff021916908373ffffffffffffffffffffffffffffffffffffffff16021790555080600260006101000a81548173ffffffffffffffffffffffffffffffffffffffff021916908373ffffffffffffffffffffffffffffffffffffffff1602179055505050610901806101106000396000f30060806040526004361061008e576000357c0100000000000000000000000000000000000000000000000000000000900463ffffffff1680631b814f02146100935780638b930f15146100b55780639f9ca8591461010c578063c09cec7714610137578063c10753291461018e578063c4e702e5146101db578063f8b2cb4f14610206578063fb47e3a21461025d575b600080fd5b61009b6102b4565b604051808215151515815260200191505060405180910390f35b3480156100c157600080fd5b506100ca6104b2565b604051808273ffffffffffffffffffffffffffffffffffffffff1673ffffffffffffffffffffffffffffffffffffffff16815260200191505060405180910390f35b34801561011857600080fd5b506101216104d8565b6040518082815260200191505060405180910390f35b34801561014357600080fd5b5061014c6104de565b604051808273ffffffffffffffffffffffffffffffffffffffff1673ffffffffffffffffffffffffffffffffffffffff16815260200191505060405180910390f35b34801561019a57600080fd5b506101d9600480360381019080803573ffffffffffffffffffffffffffffffffffffffff16906020019092919080359060200190929190505050610504565b005b3480156101e757600080fd5b506101f06107de565b6040518082815260200191505060405180910390f35b34801561021257600080fd5b50610247600480360381019080803573ffffffffffffffffffffffffffffffffffffffff1690602001909291905050506107e4565b6040518082815260200191505060405180910390f35b34801561026957600080fd5b506102726108b0565b604051808273ffffffffffffffffffffffffffffffffffffffff1673ffffffffffffffffffffffffffffffffffffffff16815260200191505060405180910390f35b6000806000809054906101000a900473ffffffffffffffffffffffffffffffffffffffff1673ffffffffffffffffffffffffffffffffffffffff163373ffffffffffffffffffffffffffffffffffffffff161480156103625750600073ffffffffffffffffffffffffffffffffffffffff16600160009054906101000a900473ffffffffffffffffffffffffffffffffffffffff1673ffffffffffffffffffffffffffffffffffffffff1614155b80156103bd5750600073ffffffffffffffffffffffffffffffffffffffff16600260009054906101000a900473ffffffffffffffffffffffffffffffffffffffff1673ffffffffffffffffffffffffffffffffffffffff1614155b1515610431576040517f08c379a000000000000000000000000000000000000000000000000000000000815260040180806020018281038252600f8152602001807f496e76616c69642061646472657373000000000000000000000000000000000081525060200191505060405180910390fd5b60023481151561043d57fe5b0490503373ffffffffffffffffffffffffffffffffffffffff167f2c99ee2518dfe3f4c4eb95ee1933a3bbee4a245ac05f3bc16f71a715fde3729f3483604051808381526020018281526020019250505060405180910390a28060035401600381905550803403600481905550600191505090565b600260009054906101000a900473ffffffffffffffffffffffffffffffffffffffff1681565b60045481565b600160009054906101000a900473ffffffffffffffffffffffffffffffffffffffff1681565b60008111151561051357600080fd5b600160009054906101000a900473ffffffffffffffffffffffffffffffffffffffff1673ffffffffffffffffffffffffffffffffffffffff168273ffffffffffffffffffffffffffffffffffffffff16141561063f5760035481111515156105e3576040517f08c379a00000000000000000000000000000000000000000000000000000000081526004018080602001828103825260108152602001807f4e6f7420656e6f7567682066756e64730000000000000000000000000000000081525060200191505060405180910390fd5b806003600082825403925050819055508173ffffffffffffffffffffffffffffffffffffffff166108fc829081150290604051600060405180830381858888f19350505050158015610639573d6000803e3d6000fd5b506107da565b600260009054906101000a900473ffffffffffffffffffffffffffffffffffffffff1673ffffffffffffffffffffffffffffffffffffffff168273ffffffffffffffffffffffffffffffffffffffff16141561076b57600454811115151561070f576040517f08c379a00000000000000000000000000000000000000000000000000000000081526004018080602001828103825260108152602001807f4e6f7420656e6f7567682066756e64730000000000000000000000000000000081525060200191505060405180910390fd5b806003600082825403925050819055508173ffffffffffffffffffffffffffffffffffffffff166108fc829081150290604051600060405180830381858888f19350505050158015610765573d6000803e3d6000fd5b506107d9565b6040517f08c379a00000000000000000000000000000000000000000000000000000000081526004018080602001828103825260188152602001807f496e766c61696420616464726573732070726f7669646564000000000000000081525060200191505060405180910390fd5b5b5050565b60035481565b60008173ffffffffffffffffffffffffffffffffffffffff16600160009054906101000a900473ffffffffffffffffffffffffffffffffffffffff1673ffffffffffffffffffffffffffffffffffffffff1614156108465760035490506108ab565b8173ffffffffffffffffffffffffffffffffffffffff16600260009054906101000a900473ffffffffffffffffffffffffffffffffffffffff1673ffffffffffffffffffffffffffffffffffffffff1614156108a65760045490506108ab565b600080fd5b919050565b6000809054906101000a900473ffffffffffffffffffffffffffffffffffffffff16815600a165627a7a7230582095a65849665d1a4c8cbd122e9490e5c5ee71f31f2150986f714c738f03fba3d10029",
  "source": "pragma solidity ^0.4.23;\r\n\r\n/**\r\n * @title Contract for keeping ledger of credit.\r\n * Credit will be divided into two and shall be assigned\r\n * to beneficiary 1 and beneficiary 2\r\n **/\r\ncontract FundsSplitter {\r\n    address public alice; /* Owner of the contract */\r\n    address public bob; /* Beneficiary 1 */\r\n    address public carol; /* Beneficiary 2*/\r\n    \r\n    uint public bobBalance;\r\n    uint public carolBalance;\r\n    \r\n    event LogAccountDebit(address indexed who, uint ttlCr, uint amtCr); /*Commit#2: Changing to CapCase*/ \r\n    event LogReset(address indexed who, address bobAdd, address carolAdd); /*Commit#2: Changing to CapCase*/ \r\n\r\n    /**\r\n     * Adding bob and carol add so that contract is\r\n     * bounded to the addresses set during deployement time.\r\n     * @param bobAdd Bob's Address\r\n     * @param carolAdd Carol's Address\r\n     */\r\n    constructor(address bobAdd, address carolAdd) public{\r\n        // Leting Alice be the owner of the contract\r\n        alice = msg.sender;\r\n        bob = bobAdd;\r\n        carol = carolAdd;\r\n    }\r\n       \r\n    /**\r\n     * Fucntion for dividing credits into two and debiting \r\n     * carol and bob's accounts by dividing the credit into two\r\n     **/\r\n    function splitFunds() public payable returns(bool succcess){\r\n        require((msg.sender == alice) && (bob != address(0)) && (carol != address(0)), \"Invalid address\");\r\n        uint amount = msg.value / 2;\r\n        emit LogAccountDebit(msg.sender, msg.value, amount);\r\n        bobBalance = bobBalance + amount;\r\n        carolBalance = msg.value - amount;        \r\n        return true;\r\n    }\r\n\r\n    function withdrawFunds(address addr, uint funds) public{\r\n        // this function will withdraw whole funds associated with each\r\n        // address and transfer the amount to the resp\r\n        require(funds > 0); // Funds can not be <= 0\r\n        if(addr == bob){\r\n            // initiate transaction from bob\r\n            require (funds <= bobBalance, \"Not enough funds\");\r\n            bobBalance -= funds;\r\n            addr.transfer(funds);\r\n        }else if(addr == carol){\r\n            // initiate transaction from carol            \r\n            require (funds <= carolBalance, \"Not enough funds\");\r\n            bobBalance -= funds;\r\n            addr.transfer(funds);\r\n        }else{\r\n            revert(\"Invlaid address provided\");\r\n        }        \r\n    }\r\n    \r\n    /**\r\n     * Function for fetching balance of an account \r\n     **/\r\n    function getBalance(address add) view public returns(uint balance) {\r\n        if(bob == add){\r\n            return bobBalance;\r\n        }else if (carol == add){\r\n            return carolBalance;\r\n        }else revert();\r\n        \r\n    }\r\n    \r\n}",
  "sourcePath": "/mnt/hgfs/Ethereum/Challenges/FundsSplitterContract/contracts/FundsSplitter.sol",
  "compiler": {
    "name": "solc",
    "version": "0.4.24+commit.e67f0147.Emscripten.clang"
  },
  "schemaVersion": "2.0.1",
  "updatedAt": "2018-07-04T18:26:55.401Z"
}