{
  "contractName": "FundsSplitter",
  "abi": [
    {
      "constant": true,
      "inputs": [],
      "name": "carol",
      "outputs": [
        {
          "name": "",
          "type": "address"
        }
      ],
      "payable": false,
      "stateMutability": "view",
      "type": "function"
    },
    {
      "constant": true,
      "inputs": [],
      "name": "carolBalance",
      "outputs": [
        {
          "name": "",
          "type": "uint256"
        }
      ],
      "payable": false,
      "stateMutability": "view",
      "type": "function"
    },
    {
      "constant": true,
      "inputs": [],
      "name": "bob",
      "outputs": [
        {
          "name": "",
          "type": "address"
        }
      ],
      "payable": false,
      "stateMutability": "view",
      "type": "function"
    },
    {
      "constant": true,
      "inputs": [],
      "name": "bobBalance",
      "outputs": [
        {
          "name": "",
          "type": "uint256"
        }
      ],
      "payable": false,
      "stateMutability": "view",
      "type": "function"
    },
    {
      "constant": true,
      "inputs": [],
      "name": "alice",
      "outputs": [
        {
          "name": "",
          "type": "address"
        }
      ],
      "payable": false,
      "stateMutability": "view",
      "type": "function"
    },
    {
      "inputs": [
        {
          "name": "bobAdd",
          "type": "address"
        },
        {
          "name": "carolAdd",
          "type": "address"
        }
      ],
      "payable": false,
      "stateMutability": "nonpayable",
      "type": "constructor"
    },
    {
      "anonymous": false,
      "inputs": [
        {
          "indexed": true,
          "name": "who",
          "type": "address"
        },
        {
          "indexed": false,
          "name": "ttlCr",
          "type": "uint256"
        },
        {
          "indexed": false,
          "name": "amtCr",
          "type": "uint256"
        }
      ],
      "name": "LogAccountDebit",
      "type": "event"
    },
    {
      "anonymous": false,
      "inputs": [
        {
          "indexed": true,
          "name": "who",
          "type": "address"
        },
        {
          "indexed": false,
          "name": "bobAdd",
          "type": "address"
        },
        {
          "indexed": false,
          "name": "carolAdd",
          "type": "address"
        }
      ],
      "name": "LogReset",
      "type": "event"
    },
    {
      "constant": false,
      "inputs": [],
      "name": "splitFunds",
      "outputs": [
        {
          "name": "succcess",
          "type": "bool"
        }
      ],
      "payable": true,
      "stateMutability": "payable",
      "type": "function"
    },
    {
      "constant": true,
      "inputs": [
        {
          "name": "add",
          "type": "address"
        }
      ],
      "name": "getBalance",
      "outputs": [
        {
          "name": "balance",
          "type": "uint256"
        }
      ],
      "payable": false,
      "stateMutability": "view",
      "type": "function"
    }
  ],
  "bytecode": "0x608060405234801561001057600080fd5b5060405160408061074a8339810180604052810190808051906020019092919080519060200190929190505050336000806101000a81548173ffffffffffffffffffffffffffffffffffffffff021916908373ffffffffffffffffffffffffffffffffffffffff16021790555081600160006101000a81548173ffffffffffffffffffffffffffffffffffffffff021916908373ffffffffffffffffffffffffffffffffffffffff16021790555080600260006101000a81548173ffffffffffffffffffffffffffffffffffffffff021916908373ffffffffffffffffffffffffffffffffffffffff160217905550505061063a806101106000396000f300608060405260043610610083576000357c0100000000000000000000000000000000000000000000000000000000900463ffffffff1680631b814f02146100885780638b930f15146100aa5780639f9ca85914610101578063c09cec771461012c578063c4e702e514610183578063f8b2cb4f146101ae578063fb47e3a214610205575b600080fd5b61009061025c565b604051808215151515815260200191505060405180910390f35b3480156100b657600080fd5b506100bf6104c5565b604051808273ffffffffffffffffffffffffffffffffffffffff1673ffffffffffffffffffffffffffffffffffffffff16815260200191505060405180910390f35b34801561010d57600080fd5b506101166104eb565b6040518082815260200191505060405180910390f35b34801561013857600080fd5b506101416104f1565b604051808273ffffffffffffffffffffffffffffffffffffffff1673ffffffffffffffffffffffffffffffffffffffff16815260200191505060405180910390f35b34801561018f57600080fd5b50610198610517565b6040518082815260200191505060405180910390f35b3480156101ba57600080fd5b506101ef600480360381019080803573ffffffffffffffffffffffffffffffffffffffff16906020019092919050505061051d565b6040518082815260200191505060405180910390f35b34801561021157600080fd5b5061021a6105e9565b604051808273ffffffffffffffffffffffffffffffffffffffff1673ffffffffffffffffffffffffffffffffffffffff16815260200191505060405180910390f35b6000806000809054906101000a900473ffffffffffffffffffffffffffffffffffffffff1673ffffffffffffffffffffffffffffffffffffffff163373ffffffffffffffffffffffffffffffffffffffff1614801561030a5750600073ffffffffffffffffffffffffffffffffffffffff16600160009054906101000a900473ffffffffffffffffffffffffffffffffffffffff1673ffffffffffffffffffffffffffffffffffffffff1614155b80156103655750600073ffffffffffffffffffffffffffffffffffffffff16600260009054906101000a900473ffffffffffffffffffffffffffffffffffffffff1673ffffffffffffffffffffffffffffffffffffffff1614155b151561037057600080fd5b60023481151561037c57fe5b0490503373ffffffffffffffffffffffffffffffffffffffff167f2c99ee2518dfe3f4c4eb95ee1933a3bbee4a245ac05f3bc16f71a715fde3729f3483604051808381526020018281526020019250505060405180910390a280600354016003819055508060045401600481905550600160009054906101000a900473ffffffffffffffffffffffffffffffffffffffff1673ffffffffffffffffffffffffffffffffffffffff166108fc829081150290604051600060405180830381858888f19350505050158015610453573d6000803e3d6000fd5b50600260009054906101000a900473ffffffffffffffffffffffffffffffffffffffff1673ffffffffffffffffffffffffffffffffffffffff166108fc829081150290604051600060405180830381858888f193505050501580156104bc573d6000803e3d6000fd5b50600191505090565b600260009054906101000a900473ffffffffffffffffffffffffffffffffffffffff1681565b60045481565b600160009054906101000a900473ffffffffffffffffffffffffffffffffffffffff1681565b60035481565b60008173ffffffffffffffffffffffffffffffffffffffff16600160009054906101000a900473ffffffffffffffffffffffffffffffffffffffff1673ffffffffffffffffffffffffffffffffffffffff16141561057f5760035490506105e4565b8173ffffffffffffffffffffffffffffffffffffffff16600260009054906101000a900473ffffffffffffffffffffffffffffffffffffffff1673ffffffffffffffffffffffffffffffffffffffff1614156105df5760045490506105e4565b600080fd5b919050565b6000809054906101000a900473ffffffffffffffffffffffffffffffffffffffff16815600a165627a7a72305820b81effcac35163ca9e819af6dd14e69ca104d7e1dc70e6cc932083889e4fb7690029",
  "source": "pragma solidity ^0.4.23;\r\n\r\n/**\r\n * @title Contract for keeping ledger of credit.\r\n * Credit will be divided into two and shall be assigned\r\n * to beneficiary 1 and beneficiary 2\r\n **/\r\ncontract FundsSplitter {\r\n    address public alice; /* Owner of the contract */\r\n    address public bob; /* Beneficiary 1 */\r\n    address public carol; /* Beneficiary 2*/\r\n    \r\n    uint public bobBalance;\r\n    uint public carolBalance;\r\n    \r\n    event LogAccountDebit(address indexed who, uint ttlCr, uint amtCr); /*Commit#2: Changing to CapCase*/ \r\n    event LogReset(address indexed who, address bobAdd, address carolAdd); /*Commit#2: Changing to CapCase*/ \r\n\r\n    /**\r\n     * Adding bob and carol add so that contract is\r\n     * bounded to the addresses set during deployement time.\r\n     * @param bobAdd Bob's Address\r\n     * @param carolAdd Carol's Address\r\n     */\r\n    constructor(address bobAdd, address carolAdd) public{\r\n        // Leting Alice be the owner of the contract\r\n        alice = msg.sender;\r\n        bob = bobAdd;\r\n        carol = carolAdd;\r\n    }\r\n       \r\n    /**\r\n     * Fucntion for dividing credits into two and debiting \r\n     * carol and bob's accounts by dividing the credit into two\r\n     **/\r\n    function splitFunds() public payable returns(bool succcess){\r\n        require((msg.sender == alice) && (bob != address(0)) && (carol != address(0)));\r\n        uint amount = msg.value / 2;\r\n        emit LogAccountDebit(msg.sender, msg.value, amount);\r\n        bobBalance = bobBalance + amount;\r\n        carolBalance = carolBalance + amount;\r\n        bob.transfer(amount);\r\n        carol.transfer(amount);\r\n        return true;\r\n    }\r\n    \r\n    /**\r\n     * Function for fetching balance of an account \r\n     **/\r\n    function getBalance(address add) view public returns(uint balance) {\r\n        if(bob == add){\r\n            return bobBalance;\r\n        }else if (carol == add){\r\n            return carolBalance;\r\n        }else revert();\r\n        \r\n    }\r\n    \r\n}",
  "sourcePath": "/mnt/hgfs/Ethereum/Challenges/FundsSplitterContract/contracts/FundsSplitter.sol",
  "compiler": {
    "name": "solc",
    "version": "0.4.24+commit.e67f0147.Emscripten.clang"
  },
  "schemaVersion": "2.0.1",
  "updatedAt": "2018-07-02T18:16:10.348Z"
}