{
  "contractName": "FundsSplitter",
  "abi": [
    {
      "constant": true,
      "inputs": [],
      "name": "paused",
      "outputs": [
        {
          "name": "",
          "type": "bool"
        }
      ],
      "payable": false,
      "stateMutability": "view",
      "type": "function"
    },
    {
      "constant": true,
      "inputs": [],
      "name": "owner",
      "outputs": [
        {
          "name": "",
          "type": "address"
        }
      ],
      "payable": false,
      "stateMutability": "view",
      "type": "function"
    },
    {
      "constant": true,
      "inputs": [
        {
          "name": "",
          "type": "bytes32"
        }
      ],
      "name": "splitTransactions",
      "outputs": [
        {
          "name": "sender",
          "type": "address"
        },
        {
          "name": "receiver",
          "type": "address"
        },
        {
          "name": "balance",
          "type": "uint256"
        }
      ],
      "payable": false,
      "stateMutability": "view",
      "type": "function"
    },
    {
      "inputs": [],
      "payable": false,
      "stateMutability": "nonpayable",
      "type": "constructor"
    },
    {
      "anonymous": false,
      "inputs": [
        {
          "indexed": true,
          "name": "from",
          "type": "address"
        },
        {
          "indexed": false,
          "name": "receiver1",
          "type": "address"
        },
        {
          "indexed": false,
          "name": "receiver2",
          "type": "address"
        },
        {
          "indexed": false,
          "name": "amount",
          "type": "uint256"
        }
      ],
      "name": "LogSplit",
      "type": "event"
    },
    {
      "anonymous": false,
      "inputs": [
        {
          "indexed": true,
          "name": "who",
          "type": "address"
        },
        {
          "indexed": false,
          "name": "amount",
          "type": "uint256"
        },
        {
          "indexed": false,
          "name": "balance",
          "type": "uint256"
        }
      ],
      "name": "LogWithdrawl",
      "type": "event"
    },
    {
      "anonymous": false,
      "inputs": [
        {
          "indexed": false,
          "name": "sender",
          "type": "address"
        }
      ],
      "name": "LogPause",
      "type": "event"
    },
    {
      "anonymous": false,
      "inputs": [
        {
          "indexed": false,
          "name": "sender",
          "type": "address"
        }
      ],
      "name": "LogUnPause",
      "type": "event"
    },
    {
      "constant": false,
      "inputs": [
        {
          "name": "receiver1",
          "type": "address"
        },
        {
          "name": "receiver2",
          "type": "address"
        }
      ],
      "name": "splitFunds",
      "outputs": [
        {
          "name": "success",
          "type": "bool"
        }
      ],
      "payable": true,
      "stateMutability": "payable",
      "type": "function"
    },
    {
      "constant": false,
      "inputs": [
        {
          "name": "amount",
          "type": "uint256"
        },
        {
          "name": "sender",
          "type": "address"
        }
      ],
      "name": "withdrawFunds",
      "outputs": [],
      "payable": false,
      "stateMutability": "nonpayable",
      "type": "function"
    },
    {
      "constant": false,
      "inputs": [],
      "name": "pause",
      "outputs": [],
      "payable": false,
      "stateMutability": "nonpayable",
      "type": "function"
    },
    {
      "constant": false,
      "inputs": [],
      "name": "unpause",
      "outputs": [],
      "payable": false,
      "stateMutability": "nonpayable",
      "type": "function"
    }
  ],
  "bytecode": "0x608060405234801561001057600080fd5b5033600060016101000a81548173ffffffffffffffffffffffffffffffffffffffff021916908373ffffffffffffffffffffffffffffffffffffffff160217905550611183806100616000396000f300608060405260043610610083576000357c0100000000000000000000000000000000000000000000000000000000900463ffffffff1680632accf2f7146100885780633f4ba83a146100f65780635c975abb1461010d578063744bfe611461013c5780638456cb59146101895780638da5cb5b146101a0578063c86795a1146101f7575b600080fd5b6100dc600480360381019080803573ffffffffffffffffffffffffffffffffffffffff169060200190929190803573ffffffffffffffffffffffffffffffffffffffff1690602001909291905050506102a2565b604051808215151515815260200191505060405180910390f35b34801561010257600080fd5b5061010b6109ce565b005b34801561011957600080fd5b50610122610b95565b604051808215151515815260200191505060405180910390f35b34801561014857600080fd5b5061018760048036038101908080359060200190929190803573ffffffffffffffffffffffffffffffffffffffff169060200190929190505050610ba7565b005b34801561019557600080fd5b5061019e610eff565b005b3480156101ac57600080fd5b506101b56110c7565b604051808273ffffffffffffffffffffffffffffffffffffffff1673ffffffffffffffffffffffffffffffffffffffff16815260200191505060405180910390f35b34801561020357600080fd5b5061022660048036038101908080356000191690602001909291905050506110ed565b604051808473ffffffffffffffffffffffffffffffffffffffff1673ffffffffffffffffffffffffffffffffffffffff1681526020018373ffffffffffffffffffffffffffffffffffffffff1673ffffffffffffffffffffffffffffffffffffffff168152602001828152602001935050505060405180910390f35b6000806000806000809054906101000a900460ff1615151561032c576040517f08c379a00000000000000000000000000000000000000000000000000000000081526004018080602001828103825260198152602001807f5b455230355d20436f6e7472616374206973207061757365640000000000000081525060200191505060405180910390fd5b600073ffffffffffffffffffffffffffffffffffffffff168673ffffffffffffffffffffffffffffffffffffffff16141515156103d1576040517f08c379a00000000000000000000000000000000000000000000000000000000081526004018080602001828103825260168152602001807f5b455230325d20496e76616c696420616464726573730000000000000000000081525060200191505060405180910390fd5b600073ffffffffffffffffffffffffffffffffffffffff168573ffffffffffffffffffffffffffffffffffffffff1614151515610476576040517f08c379a00000000000000000000000000000000000000000000000000000000081526004018080602001828103825260168152602001807f5b455230325d20496e76616c696420616464726573730000000000000000000081525060200191505060405180910390fd5b8473ffffffffffffffffffffffffffffffffffffffff168673ffffffffffffffffffffffffffffffffffffffff161415151561051a576040517f08c379a00000000000000000000000000000000000000000000000000000000081526004018080602001828103825260168152602001807f5b455230325d20496e76616c696420616464726573730000000000000000000081525060200191505060405180910390fd5b600034111515610592576040517f08c379a00000000000000000000000000000000000000000000000000000000081526004018080602001828103825260158152602001807f5b455230345d20496e76616c69642056616c756573000000000000000000000081525060200191505060405180910390fd5b60023481151561059e57fe5b0492503386604051808373ffffffffffffffffffffffffffffffffffffffff1673ffffffffffffffffffffffffffffffffffffffff166c010000000000000000000000000281526014018273ffffffffffffffffffffffffffffffffffffffff1673ffffffffffffffffffffffffffffffffffffffff166c0100000000000000000000000002815260140192505050604051809103902091503385604051808373ffffffffffffffffffffffffffffffffffffffff1673ffffffffffffffffffffffffffffffffffffffff166c010000000000000000000000000281526014018273ffffffffffffffffffffffffffffffffffffffff1673ffffffffffffffffffffffffffffffffffffffff166c0100000000000000000000000002815260140192505050604051809103902090506060604051908101604052803373ffffffffffffffffffffffffffffffffffffffff1681526020018773ffffffffffffffffffffffffffffffffffffffff16815260200184600160008660001916600019168152602001908152602001600020600201540181525060016000846000191660001916815260200190815260200160002060008201518160000160006101000a81548173ffffffffffffffffffffffffffffffffffffffff021916908373ffffffffffffffffffffffffffffffffffffffff16021790555060208201518160010160006101000a81548173ffffffffffffffffffffffffffffffffffffffff021916908373ffffffffffffffffffffffffffffffffffffffff160217905550604082015181600201559050506060604051908101604052803373ffffffffffffffffffffffffffffffffffffffff1681526020018673ffffffffffffffffffffffffffffffffffffffff168152602001843403600160008560001916600019168152602001908152602001600020600201540181525060016000836000191660001916815260200190815260200160002060008201518160000160006101000a81548173ffffffffffffffffffffffffffffffffffffffff021916908373ffffffffffffffffffffffffffffffffffffffff16021790555060208201518160010160006101000a81548173ffffffffffffffffffffffffffffffffffffffff021916908373ffffffffffffffffffffffffffffffffffffffff160217905550604082015181600201559050503373ffffffffffffffffffffffffffffffffffffffff167f5861cc23de8cab7630160dc0ee2c1e9aa2a0f1498f73c387807c0100e6684da7878734604051808473ffffffffffffffffffffffffffffffffffffffff1673ffffffffffffffffffffffffffffffffffffffff1681526020018373ffffffffffffffffffffffffffffffffffffffff1673ffffffffffffffffffffffffffffffffffffffff168152602001828152602001935050505060405180910390a26001935050505092915050565b600060019054906101000a900473ffffffffffffffffffffffffffffffffffffffff1673ffffffffffffffffffffffffffffffffffffffff163373ffffffffffffffffffffffffffffffffffffffff16141515610a93576040517f08c379a000000000000000000000000000000000000000000000000000000000815260040180806020018281038252601c8152602001807f5b455230315d20496e76616c6964206f776e657220616464726573730000000081525060200191505060405180910390fd5b6000809054906101000a900460ff161515610b16576040517f08c379a000000000000000000000000000000000000000000000000000000000815260040180806020018281038252601d8152602001807f5b455230365d20436f6e7472616374206973206e6f742070617573656400000081525060200191505060405180910390fd5b60008060006101000a81548160ff0219169083151502179055507fba6b1ab6db5108ba754928561df4d9b8d42fa3003d8f810ba24d80c7911010eb33604051808273ffffffffffffffffffffffffffffffffffffffff1673ffffffffffffffffffffffffffffffffffffffff16815260200191505060405180910390a1565b6000809054906101000a900460ff1681565b60008060009054906101000a900460ff16151515610c2d576040517f08c379a00000000000000000000000000000000000000000000000000000000081526004018080602001828103825260198152602001807f5b455230355d20436f6e7472616374206973207061757365640000000000000081525060200191505060405180910390fd5b600083111515610c3c57600080fd5b8133604051808373ffffffffffffffffffffffffffffffffffffffff1673ffffffffffffffffffffffffffffffffffffffff166c010000000000000000000000000281526014018273ffffffffffffffffffffffffffffffffffffffff1673ffffffffffffffffffffffffffffffffffffffff166c0100000000000000000000000002815260140192505050604051809103902090503373ffffffffffffffffffffffffffffffffffffffff1660016000836000191660001916815260200190815260200160002060010160009054906101000a900473ffffffffffffffffffffffffffffffffffffffff1673ffffffffffffffffffffffffffffffffffffffff16141515610db3576040517f08c379a00000000000000000000000000000000000000000000000000000000081526004018080602001828103825260168152602001807f5b455230335d20496e76616c696420616464726573730000000000000000000081525060200191505060405180910390fd5b826001600083600019166000191681526020019081526020016000206002015410151515610e49576040517f08c379a00000000000000000000000000000000000000000000000000000000081526004018080602001828103825260178152602001807f5b455230335d204e6f7420656e6f7567682046756e647300000000000000000081525060200191505060405180910390fd5b826001600083600019166000191681526020019081526020016000206002016000828254039250508190555060016000826000191660001916815260200190815260200160002060010160009054906101000a900473ffffffffffffffffffffffffffffffffffffffff1673ffffffffffffffffffffffffffffffffffffffff166108fc849081150290604051600060405180830381858888f19350505050158015610ef9573d6000803e3d6000fd5b50505050565b600060019054906101000a900473ffffffffffffffffffffffffffffffffffffffff1673ffffffffffffffffffffffffffffffffffffffff163373ffffffffffffffffffffffffffffffffffffffff16141515610fc4576040517f08c379a000000000000000000000000000000000000000000000000000000000815260040180806020018281038252601c8152602001807f5b455230315d20496e76616c6964206f776e657220616464726573730000000081525060200191505060405180910390fd5b6000809054906101000a900460ff16151515611048576040517f08c379a00000000000000000000000000000000000000000000000000000000081526004018080602001828103825260198152602001807f5b455230355d20436f6e7472616374206973207061757365640000000000000081525060200191505060405180910390fd5b60016000806101000a81548160ff0219169083151502179055507f89f564368ff47e464476d722faa29b55ce2a67fd70c8045bd94153879285a6d033604051808273ffffffffffffffffffffffffffffffffffffffff1673ffffffffffffffffffffffffffffffffffffffff16815260200191505060405180910390a1565b600060019054906101000a900473ffffffffffffffffffffffffffffffffffffffff1681565b60016020528060005260406000206000915090508060000160009054906101000a900473ffffffffffffffffffffffffffffffffffffffff16908060010160009054906101000a900473ffffffffffffffffffffffffffffffffffffffff169080600201549050835600a165627a7a72305820cf59827dee66c019e92c569cbcc743f48357cb7f944aa0daa37d9e0e8412fac90029",
  "source": "pragma solidity ^0.4.23;\r\n\r\n/**\r\n * @title Contract for keeping ledger of credit.\r\n * Credit will be divided into two and shall be assigned\r\n * to beneficiary 1 and beneficiary 2\r\n * Revision# 04: Incorporating Review comments by Rob.\r\n * Stretch Goals: After you addressed the small hints, refactor the contract so it can \r\n * handle many splits from many people at the same time. Additionally, make it so each \r\n * sender can name any two receivers. This means bob and carol are not special. You have \r\n * to think about everyone.        \r\n **/\r\ncontract FundsSplitter {    \r\n\r\n    struct Transaction{\r\n        address sender;\r\n        address receiver;        \r\n        uint balance;               \r\n    }\r\n    bool public paused;\r\n    address public owner;\r\n    mapping(bytes32 => Transaction) public splitTransactions;\r\n        \r\n    \r\n    event LogSplit(address indexed from, address receiver1, address receiver2, uint amount); /*Commit#4: Refactoring*/ \r\n    event LogWithdrawl(address indexed who, uint amount, uint balance); /*Commit#3: Index withdrawal */    \r\n    event LogPause(address sender);\r\n    event LogUnPause(address sender);\r\n    \r\n    /**\r\n     * Modifier for checking if the procedure is called\r\n     * by owner \r\n     */\r\n    modifier ownerOnly{\r\n        require(msg.sender == owner, \"[ER01] Invalid owner address\");\r\n        _;\r\n    }\r\n\r\n    /**\r\n     * Modifier to validate if contract is not paused\r\n     */\r\n    modifier whenNotPaused(){\r\n        require(!paused, \"[ER05] Contract is paused\");\r\n        _;\r\n    }\r\n\r\n    /**\r\n     * Modifier to validate if the contract is paused\r\n     */\r\n    modifier whenPaused(){\r\n        require(paused, \"[ER06] Contract is not paused\");\r\n        _;\r\n    }\r\n\r\n    /**\r\n     * Procedure no longer depends on any arguments.\r\n     */ \r\n    constructor() public {\r\n        owner = msg.sender;\r\n    }\r\n       \r\n    /**\r\n     * Refactored! Proecure will take receiver address and does \r\n     * not depends on the owner.\r\n     **/\r\n    function splitFunds(address receiver1, address receiver2) public payable whenNotPaused returns(bool success)  {                \r\n        require(receiver1 != address(0), \"[ER02] Invalid address\");\r\n        require(receiver2 != address(0), \"[ER02] Invalid address\");\r\n        require(receiver1 != receiver2, \"[ER02] Invalid address\");\r\n        require(msg.value > 0, \"[ER04] Invalid Values\");\r\n        uint amount = msg.value / 2;                \r\n        bytes32 key1 = keccak256(msg.sender,receiver1);\r\n        bytes32 key2 = keccak256(msg.sender,receiver2);\r\n        splitTransactions[key1] = Transaction(msg.sender,receiver1, splitTransactions[key1].balance+amount);\r\n        splitTransactions[key2] = Transaction(msg.sender,receiver2,splitTransactions[key2].balance +(msg.value - amount));        \r\n        emit LogSplit(msg.sender, receiver1,receiver2, msg.value);\r\n        return true;\r\n    }\r\n\r\n    /**\r\n     * Procedure for withdrawing debited amount to the \r\n     * specific owner\r\n     * @param amount Funds to withdraw\r\n     * @param sender Address of the transaction initiator\r\n     */\r\n    function withdrawFunds(uint amount, address sender) whenNotPaused public{\r\n        // this function will withdraw whole funds associated with each\r\n        // address and transfer the amount to the resp\r\n        require(amount > 0); // Funds can not be <= 0\r\n        bytes32 key = keccak256(sender,msg.sender);\r\n        require(splitTransactions[key].receiver == msg.sender,\"[ER03] Invalid address\");\r\n        require(splitTransactions[key].balance >= amount,\"[ER03] Not enough Funds\");\r\n        splitTransactions[key].balance -= amount;\r\n        splitTransactions[key].receiver.transfer(amount);        \r\n    }\r\n    \r\n\r\n    /**\r\n     * Procedure to pause the contract\r\n     */\r\n    function pause() ownerOnly whenNotPaused public{\r\n        paused = true;\r\n        emit LogPause(msg.sender);\r\n    }\r\n\r\n    /**\r\n     * Procedure to unpause the contract\r\n     */\r\n    function unpause() ownerOnly whenPaused public{\r\n        paused = false;\r\n        emit LogUnPause(msg.sender);\r\n    }\r\n    \r\n}",
  "sourcePath": "/mnt/hgfs/Ethereum/Challenges/FundsSplitterContract/contracts/FundsSplitter.sol",
  "compiler": {
    "name": "solc",
    "version": "0.4.24+commit.e67f0147.Emscripten.clang"
  },
  "schemaVersion": "2.0.1",
  "updatedAt": "2018-07-07T15:39:21.212Z"
}