{
  "contractName": "FundsSplitter",
  "abi": [
    {
      "constant": true,
      "inputs": [],
      "name": "paused",
      "outputs": [
        {
          "name": "",
          "type": "bool"
        }
      ],
      "payable": false,
      "stateMutability": "view",
      "type": "function"
    },
    {
      "inputs": [
        {
          "name": "bobAdd",
          "type": "address"
        },
        {
          "name": "carolAdd",
          "type": "address"
        }
      ],
      "payable": false,
      "stateMutability": "nonpayable",
      "type": "constructor"
    },
    {
      "anonymous": false,
      "inputs": [
        {
          "indexed": true,
          "name": "who",
          "type": "address"
        },
        {
          "indexed": false,
          "name": "ttlCr",
          "type": "uint256"
        },
        {
          "indexed": false,
          "name": "bobBalance",
          "type": "uint256"
        },
        {
          "indexed": false,
          "name": "carolBalance",
          "type": "uint256"
        }
      ],
      "name": "LogSplitFunds",
      "type": "event"
    },
    {
      "anonymous": false,
      "inputs": [
        {
          "indexed": true,
          "name": "who",
          "type": "address"
        },
        {
          "indexed": false,
          "name": "fundsWith",
          "type": "uint256"
        },
        {
          "indexed": false,
          "name": "balance",
          "type": "uint256"
        }
      ],
      "name": "LogWithdrawl",
      "type": "event"
    },
    {
      "anonymous": false,
      "inputs": [],
      "name": "LogPause",
      "type": "event"
    },
    {
      "anonymous": false,
      "inputs": [],
      "name": "LogUnPause",
      "type": "event"
    },
    {
      "constant": false,
      "inputs": [],
      "name": "splitFunds",
      "outputs": [
        {
          "name": "succcess",
          "type": "bool"
        }
      ],
      "payable": true,
      "stateMutability": "payable",
      "type": "function"
    },
    {
      "constant": false,
      "inputs": [
        {
          "name": "funds",
          "type": "uint256"
        }
      ],
      "name": "withdrawFunds",
      "outputs": [],
      "payable": false,
      "stateMutability": "nonpayable",
      "type": "function"
    },
    {
      "constant": true,
      "inputs": [],
      "name": "getBalance",
      "outputs": [
        {
          "name": "balance",
          "type": "uint256"
        }
      ],
      "payable": false,
      "stateMutability": "view",
      "type": "function"
    },
    {
      "constant": false,
      "inputs": [],
      "name": "pause",
      "outputs": [],
      "payable": false,
      "stateMutability": "nonpayable",
      "type": "function"
    },
    {
      "constant": false,
      "inputs": [],
      "name": "unpause",
      "outputs": [],
      "payable": false,
      "stateMutability": "nonpayable",
      "type": "function"
    }
  ],
  "bytecode": "0x60806040526000600260146101000a81548160ff02191690831515021790555034801561002b57600080fd5b50604051604080610e1d8339810180604052810190808051906020019092919080519060200190929190505050336000806101000a81548173ffffffffffffffffffffffffffffffffffffffff021916908373ffffffffffffffffffffffffffffffffffffffff16021790555081600160006101000a81548173ffffffffffffffffffffffffffffffffffffffff021916908373ffffffffffffffffffffffffffffffffffffffff16021790555080600260006101000a81548173ffffffffffffffffffffffffffffffffffffffff021916908373ffffffffffffffffffffffffffffffffffffffff1602179055505050610cf28061012b6000396000f300608060405260043610610078576000357c0100000000000000000000000000000000000000000000000000000000900463ffffffff16806312065fe01461007d578063155dd5ee146100a85780631b814f02146100d55780633f4ba83a146100f75780635c975abb1461010e5780638456cb591461013d575b600080fd5b34801561008957600080fd5b50610092610154565b6040518082815260200191505060405180910390f35b3480156100b457600080fd5b506100d360048036038101908080359060200190929190505050610287565b005b6100dd610695565b604051808215151515815260200191505060405180910390f35b34801561010357600080fd5b5061010c610990565b005b34801561011a57600080fd5b50610123610b21565b604051808215151515815260200191505060405180910390f35b34801561014957600080fd5b50610152610b34565b005b6000600160009054906101000a900473ffffffffffffffffffffffffffffffffffffffff1673ffffffffffffffffffffffffffffffffffffffff163373ffffffffffffffffffffffffffffffffffffffff1614156101b6576003549050610284565b600260009054906101000a900473ffffffffffffffffffffffffffffffffffffffff1673ffffffffffffffffffffffffffffffffffffffff163373ffffffffffffffffffffffffffffffffffffffff161415610216576004549050610284565b6040517f08c379a000000000000000000000000000000000000000000000000000000000815260040180806020018281038252601f8152602001807f5b455230345d20496e76616c696420616464726573732070726f76696465640081525060200191505060405180910390fd5b90565b600260149054906101000a900460ff1615151561030c576040517f08c379a00000000000000000000000000000000000000000000000000000000081526004018080602001828103825260198152602001807f5b455230355d20436f6e7472616374206973207061757365640000000000000081525060200191505060405180910390fd5b60008111151561031b57600080fd5b600160009054906101000a900473ffffffffffffffffffffffffffffffffffffffff1673ffffffffffffffffffffffffffffffffffffffff163373ffffffffffffffffffffffffffffffffffffffff16141561049f5760035481111515156103eb576040517f08c379a00000000000000000000000000000000000000000000000000000000081526004018080602001828103825260178152602001807f5b455230335d204e6f7420656e6f7567682066756e647300000000000000000081525060200191505060405180910390fd5b806003600082825403925050819055503373ffffffffffffffffffffffffffffffffffffffff167fcf608fec8f8bf90355bd29b2e01a38e2db116b9c7ed5e18e95a0e63e97240b4482600354604051808381526020018281526020019250505060405180910390a23373ffffffffffffffffffffffffffffffffffffffff166108fc829081150290604051600060405180830381858888f19350505050158015610499573d6000803e3d6000fd5b50610692565b600260009054906101000a900473ffffffffffffffffffffffffffffffffffffffff1673ffffffffffffffffffffffffffffffffffffffff163373ffffffffffffffffffffffffffffffffffffffff16141561062357600454811115151561056f576040517f08c379a00000000000000000000000000000000000000000000000000000000081526004018080602001828103825260178152602001807f5b455230335d204e6f7420656e6f7567682066756e647300000000000000000081525060200191505060405180910390fd5b806003600082825403925050819055503373ffffffffffffffffffffffffffffffffffffffff167fcf608fec8f8bf90355bd29b2e01a38e2db116b9c7ed5e18e95a0e63e97240b4482600454604051808381526020018281526020019250505060405180910390a23373ffffffffffffffffffffffffffffffffffffffff166108fc829081150290604051600060405180830381858888f1935050505015801561061d573d6000803e3d6000fd5b50610691565b6040517f08c379a00000000000000000000000000000000000000000000000000000000081526004018080602001828103825260168152602001807f5b455230345d20496e766c61696420616464726573730000000000000000000081525060200191505060405180910390fd5b5b50565b6000806000809054906101000a900473ffffffffffffffffffffffffffffffffffffffff1673ffffffffffffffffffffffffffffffffffffffff163373ffffffffffffffffffffffffffffffffffffffff1614151561075c576040517f08c379a000000000000000000000000000000000000000000000000000000000815260040180806020018281038252601c8152602001807f5b455230315d20496e76616c6964206f776e657220616464726573730000000081525060200191505060405180910390fd5b600260149054906101000a900460ff161515156107e1576040517f08c379a00000000000000000000000000000000000000000000000000000000081526004018080602001828103825260198152602001807f5b455230355d20436f6e7472616374206973207061757365640000000000000081525060200191505060405180910390fd5b600073ffffffffffffffffffffffffffffffffffffffff16600160009054906101000a900473ffffffffffffffffffffffffffffffffffffffff1673ffffffffffffffffffffffffffffffffffffffff161415801561088f5750600073ffffffffffffffffffffffffffffffffffffffff16600260009054906101000a900473ffffffffffffffffffffffffffffffffffffffff1673ffffffffffffffffffffffffffffffffffffffff1614155b1515610903576040517f08c379a00000000000000000000000000000000000000000000000000000000081526004018080602001828103825260168152602001807f5b455230325d20496e76616c696420616464726573730000000000000000000081525060200191505060405180910390fd5b60023481151561090f57fe5b04905080600354016003819055508034036004819055503373ffffffffffffffffffffffffffffffffffffffff167f4eac94ccac1c779dde43bd1b21b0810526151043006959517a114d5c3c10d2c63460035460045460405180848152602001838152602001828152602001935050505060405180910390a2600191505090565b6000809054906101000a900473ffffffffffffffffffffffffffffffffffffffff1673ffffffffffffffffffffffffffffffffffffffff163373ffffffffffffffffffffffffffffffffffffffff16141515610a54576040517f08c379a000000000000000000000000000000000000000000000000000000000815260040180806020018281038252601c8152602001807f5b455230315d20496e76616c6964206f776e657220616464726573730000000081525060200191505060405180910390fd5b600260149054906101000a900460ff161515610ad8576040517f08c379a000000000000000000000000000000000000000000000000000000000815260040180806020018281038252601d8152602001807f5b455230365d20436f6e7472616374206973206e6f742070617573656400000081525060200191505060405180910390fd5b6000600260146101000a81548160ff0219169083151502179055507fb5c8924e58599edc3ba8e499a17ad57f232f019e34d42385a4d3f60d89a5aacb60405160405180910390a1565b600260149054906101000a900460ff1681565b6000809054906101000a900473ffffffffffffffffffffffffffffffffffffffff1673ffffffffffffffffffffffffffffffffffffffff163373ffffffffffffffffffffffffffffffffffffffff16141515610bf8576040517f08c379a000000000000000000000000000000000000000000000000000000000815260040180806020018281038252601c8152602001807f5b455230315d20496e76616c6964206f776e657220616464726573730000000081525060200191505060405180910390fd5b600260149054906101000a900460ff16151515610c7d576040517f08c379a00000000000000000000000000000000000000000000000000000000081526004018080602001828103825260198152602001807f5b455230355d20436f6e7472616374206973207061757365640000000000000081525060200191505060405180910390fd5b6001600260146101000a81548160ff0219169083151502179055507f4b314b34e912fda7f95e7d23e9c8c95f82f0aff1984e4ce592a0b005f905562460405160405180910390a15600a165627a7a7230582010da4ce4cb0f0e3fe257b881b279c45071ff5f7a8337b3a07e709658e818c07b0029",
  "source": "pragma solidity ^0.4.23;\r\n\r\n/**\r\n * @title Contract for keeping ledger of credit.\r\n * Credit will be divided into two and shall be assigned\r\n * to beneficiary 1 and beneficiary 2\r\n **/\r\ncontract FundsSplitter {\r\n    address alice; /* Owner of the contract */\r\n    address bob; /* Beneficiary 1 */\r\n    address carol; /* Beneficiary 2*/\r\n    bool public paused = false;\r\n    \r\n    uint bobBalance;\r\n    uint carolBalance;\r\n    \r\n    event LogSplitFunds(address indexed who, uint ttlCr, uint bobBalance, uint carolBalance); /*Commit#2: Changing to CapCase*/ \r\n    event LogWithdrawl(address indexed who, uint fundsWith, uint balance); /*Commit#3: Index withdrawal */    \r\n    event LogPause();\r\n    event LogUnPause();\r\n    \r\n    /**\r\n     * Modifier for checking if the procedure is called\r\n     * by owner \r\n     */\r\n    modifier ownerOnly{\r\n        require(msg.sender == alice, \"[ER01] Invalid owner address\");\r\n        _;\r\n    }\r\n\r\n    /**\r\n     * Modifier to validate if contract is not paused\r\n     */\r\n    modifier whenNotPaused(){\r\n        require(!paused, \"[ER05] Contract is paused\");\r\n        _;\r\n    }\r\n\r\n    /**\r\n     * Modifier to validate if the contract is paused\r\n     */\r\n    modifier whenPaused(){\r\n        require(paused, \"[ER06] Contract is not paused\");\r\n        _;\r\n    }\r\n\r\n    /**\r\n     * Adding bob and carol add so that contract is\r\n     * bounded to the addresses set during deployement time.\r\n     * @param bobAdd Bob's Address\r\n     * @param carolAdd Carol's Address\r\n     */\r\n    constructor(address bobAdd, address carolAdd) public{\r\n        // Leting Alice be the owner of the contract\r\n        alice = msg.sender;\r\n        bob = bobAdd;\r\n        carol = carolAdd;\r\n    }\r\n       \r\n    /**\r\n     * Fucntion for dividing credits into two and debiting \r\n     * carol and bob's accounts by dividing the credit into two\r\n     * @return success Incase funds are split sucessfully\r\n     **/\r\n    function splitFunds() public payable ownerOnly whenNotPaused returns(bool succcess)  {\r\n        require((bob != address(0)) && (carol != address(0)), \"[ER02] Invalid address\");\r\n        uint amount = msg.value / 2;        \r\n        bobBalance = bobBalance + amount;\r\n        carolBalance = msg.value - amount;        \r\n        emit LogSplitFunds(msg.sender, msg.value, bobBalance, carolBalance);\r\n        return true;\r\n    }\r\n\r\n    /**\r\n     * Procedure for withdrawing debited amount to the \r\n     * specific owner\r\n     * @param funds Funds to withdraw\r\n     */\r\n    function withdrawFunds(uint funds) whenNotPaused public{\r\n        // this function will withdraw whole funds associated with each\r\n        // address and transfer the amount to the resp\r\n        require(funds > 0); // Funds can not be <= 0\r\n        if(msg.sender == bob){\r\n            // initiate transaction from bob\r\n            require (funds <= bobBalance, \"[ER03] Not enough funds\");\r\n            bobBalance -= funds;\r\n            emit LogWithdrawl(msg.sender,funds,bobBalance);\r\n            msg.sender.transfer(funds);\r\n        }else if(msg.sender == carol){\r\n            // initiate transaction from carol            \r\n            require (funds <= carolBalance, \"[ER03] Not enough funds\");\r\n            bobBalance -= funds;\r\n            emit LogWithdrawl(msg.sender,funds, carolBalance);\r\n            msg.sender.transfer(funds);\r\n        }else{\r\n            revert(\"[ER04] Invlaid address\");\r\n        }        \r\n    }\r\n    \r\n    /**\r\n     * Function for fetching balance of an account \r\n     * @return balance Balance of the owner\r\n     **/\r\n    function getBalance() view public returns(uint balance) {\r\n        if(msg.sender == bob){\r\n            return bobBalance;\r\n        }else if (msg.sender == carol){\r\n            return carolBalance;\r\n        }else revert(\"[ER04] Invalid address provided\");\r\n        \r\n    }\r\n\r\n    /**\r\n     * Procedure to pause the contract\r\n     */\r\n    function pause() ownerOnly whenNotPaused public{\r\n        paused = true;\r\n        emit LogPause();\r\n    }\r\n\r\n    /**\r\n     * Procedure to unpause the contract\r\n     */\r\n    function unpause() ownerOnly whenPaused public{\r\n        paused = false;\r\n        emit LogUnPause();\r\n    }\r\n    \r\n}",
  "sourcePath": "/mnt/hgfs/Ethereum/Challenges/FundsSplitterContract/contracts/FundsSplitter.sol",
  "compiler": {
    "name": "solc",
    "version": "0.4.24+commit.e67f0147.Emscripten.clang"
  },
  "schemaVersion": "2.0.1",
  "updatedAt": "2018-07-05T20:15:01.292Z"
}