{
  "contractName": "FundsSplitter",
  "abi": [
    {
      "constant": true,
      "inputs": [],
      "name": "carolBalance",
      "outputs": [
        {
          "name": "",
          "type": "uint256"
        }
      ],
      "payable": false,
      "stateMutability": "view",
      "type": "function"
    },
    {
      "constant": true,
      "inputs": [],
      "name": "bobBalance",
      "outputs": [
        {
          "name": "",
          "type": "uint256"
        }
      ],
      "payable": false,
      "stateMutability": "view",
      "type": "function"
    },
    {
      "inputs": [],
      "payable": false,
      "stateMutability": "nonpayable",
      "type": "constructor"
    },
    {
      "anonymous": false,
      "inputs": [
        {
          "indexed": true,
          "name": "who",
          "type": "address"
        },
        {
          "indexed": false,
          "name": "ttlCr",
          "type": "uint256"
        },
        {
          "indexed": false,
          "name": "amtCr",
          "type": "uint256"
        }
      ],
      "name": "logAccountDebit",
      "type": "event"
    },
    {
      "anonymous": false,
      "inputs": [
        {
          "indexed": true,
          "name": "who",
          "type": "address"
        },
        {
          "indexed": false,
          "name": "bobAdd",
          "type": "address"
        },
        {
          "indexed": false,
          "name": "carolAdd",
          "type": "address"
        }
      ],
      "name": "logReset",
      "type": "event"
    },
    {
      "constant": false,
      "inputs": [
        {
          "name": "bobAdd",
          "type": "address"
        }
      ],
      "name": "setBobAdd",
      "outputs": [],
      "payable": false,
      "stateMutability": "nonpayable",
      "type": "function"
    },
    {
      "constant": false,
      "inputs": [
        {
          "name": "carolAdd",
          "type": "address"
        }
      ],
      "name": "setCarolAdd",
      "outputs": [],
      "payable": false,
      "stateMutability": "nonpayable",
      "type": "function"
    },
    {
      "constant": false,
      "inputs": [
        {
          "name": "credit",
          "type": "uint256"
        }
      ],
      "name": "debit",
      "outputs": [],
      "payable": false,
      "stateMutability": "nonpayable",
      "type": "function"
    },
    {
      "constant": true,
      "inputs": [
        {
          "name": "add",
          "type": "address"
        }
      ],
      "name": "getBalance",
      "outputs": [
        {
          "name": "balance",
          "type": "uint256"
        }
      ],
      "payable": false,
      "stateMutability": "view",
      "type": "function"
    },
    {
      "constant": false,
      "inputs": [],
      "name": "reset",
      "outputs": [],
      "payable": false,
      "stateMutability": "nonpayable",
      "type": "function"
    }
  ],
  "bytecode": "0x608060405234801561001057600080fd5b50336000806101000a81548173ffffffffffffffffffffffffffffffffffffffff021916908373ffffffffffffffffffffffffffffffffffffffff160217905550610864806100606000396000f300608060405260043610610083576000357c0100000000000000000000000000000000000000000000000000000000900463ffffffff1680631dd55813146100885780634e436dfa146100cb5780639f9ca8591461010e578063c4e702e514610139578063d826f88f14610164578063e609d9fc1461017b578063f8b2cb4f146101a8575b600080fd5b34801561009457600080fd5b506100c9600480360381019080803573ffffffffffffffffffffffffffffffffffffffff1690602001909291905050506101ff565b005b3480156100d757600080fd5b5061010c600480360381019080803573ffffffffffffffffffffffffffffffffffffffff1690602001909291905050506102f5565b005b34801561011a57600080fd5b506101236103eb565b6040518082815260200191505060405180910390f35b34801561014557600080fd5b5061014e6103f1565b6040518082815260200191505060405180910390f35b34801561017057600080fd5b506101796103f7565b005b34801561018757600080fd5b506101a6600480360381019080803590602001909291905050506105da565b005b3480156101b457600080fd5b506101e9600480360381019080803573ffffffffffffffffffffffffffffffffffffffff16906020019092919050505061076c565b6040518082815260200191505060405180910390f35b600073ffffffffffffffffffffffffffffffffffffffff16600160009054906101000a900473ffffffffffffffffffffffffffffffffffffffff1673ffffffffffffffffffffffffffffffffffffffff161480156102a957503373ffffffffffffffffffffffffffffffffffffffff166000809054906101000a900473ffffffffffffffffffffffffffffffffffffffff1673ffffffffffffffffffffffffffffffffffffffff16145b15156102b157fe5b80600160006101000a81548173ffffffffffffffffffffffffffffffffffffffff021916908373ffffffffffffffffffffffffffffffffffffffff16021790555050565b600073ffffffffffffffffffffffffffffffffffffffff16600260009054906101000a900473ffffffffffffffffffffffffffffffffffffffff1673ffffffffffffffffffffffffffffffffffffffff1614801561039f57503373ffffffffffffffffffffffffffffffffffffffff166000809054906101000a900473ffffffffffffffffffffffffffffffffffffffff1673ffffffffffffffffffffffffffffffffffffffff16145b15156103a757fe5b80600260006101000a81548173ffffffffffffffffffffffffffffffffffffffff021916908373ffffffffffffffffffffffffffffffffffffffff16021790555050565b60045481565b60035481565b6000809054906101000a900473ffffffffffffffffffffffffffffffffffffffff1673ffffffffffffffffffffffffffffffffffffffff163373ffffffffffffffffffffffffffffffffffffffff1614151561045257600080fd5b3373ffffffffffffffffffffffffffffffffffffffff167ffb96e8f07ac1687617b84b8a78f85db2ffefe93ebf864b63757e5fefdec56e68600160009054906101000a900473ffffffffffffffffffffffffffffffffffffffff16600260009054906101000a900473ffffffffffffffffffffffffffffffffffffffff16604051808373ffffffffffffffffffffffffffffffffffffffff1673ffffffffffffffffffffffffffffffffffffffff1681526020018273ffffffffffffffffffffffffffffffffffffffff1673ffffffffffffffffffffffffffffffffffffffff1681526020019250505060405180910390a26000600160006101000a81548173ffffffffffffffffffffffffffffffffffffffff021916908373ffffffffffffffffffffffffffffffffffffffff1602179055506000600260006101000a81548173ffffffffffffffffffffffffffffffffffffffff021916908373ffffffffffffffffffffffffffffffffffffffff16021790555060006003819055506000600481905550565b60008060009054906101000a900473ffffffffffffffffffffffffffffffffffffffff1673ffffffffffffffffffffffffffffffffffffffff163373ffffffffffffffffffffffffffffffffffffffff161480156106875750600073ffffffffffffffffffffffffffffffffffffffff16600160009054906101000a900473ffffffffffffffffffffffffffffffffffffffff1673ffffffffffffffffffffffffffffffffffffffff1614155b80156106e25750600073ffffffffffffffffffffffffffffffffffffffff16600260009054906101000a900473ffffffffffffffffffffffffffffffffffffffff1673ffffffffffffffffffffffffffffffffffffffff1614155b15156106ed57600080fd5b6002828115156106f957fe5b0490503373ffffffffffffffffffffffffffffffffffffffff167f4ed46f025faa449d321dd9f9e40d6608256bba71dd84aa77cf78cab993d61a5a8383604051808381526020018281526020019250505060405180910390a2806003540160038190555080600454016004819055505050565b60008173ffffffffffffffffffffffffffffffffffffffff16600160009054906101000a900473ffffffffffffffffffffffffffffffffffffffff1673ffffffffffffffffffffffffffffffffffffffff1614156107ce576003549050610833565b8173ffffffffffffffffffffffffffffffffffffffff16600260009054906101000a900473ffffffffffffffffffffffffffffffffffffffff1673ffffffffffffffffffffffffffffffffffffffff16141561082e576004549050610833565b600080fd5b9190505600a165627a7a7230582089ea2a3f993f3fb9cba52df14b228b52952ce432595a01497c1739d9a8b972f20029",
  "source": "pragma solidity ^0.4.23;\r\n\r\n/**\r\n * Contract for keeping ledger of credit.\r\n * Credit will be divided into two and shall be assigned\r\n * to beneficiary 1 and beneficiary 2\r\n **/\r\ncontract FundsSplitter {\r\n    address alice; /* Owner of the contract */\r\n    address bob; /* Beneficiary 1 */\r\n    address carol; /* Beneficiary 2*/\r\n    \r\n    uint public bobBalance;\r\n    uint public carolBalance;\r\n    \r\n    event logAccountDebit(address indexed who, uint ttlCr, uint amtCr);\r\n    event logReset(address indexed who, address bobAdd, address carolAdd);\r\n\r\n    \r\n    constructor() public{\r\n        // Leting Alice be the owner of the contract\r\n        alice = msg.sender;\r\n    }\r\n    \r\n    /**\r\n     * Function for seting bob's address \r\n     **/\r\n    function setBobAdd(address bobAdd) public{\r\n        assert(bob == address(0) && alice == msg.sender);\r\n        bob = bobAdd;\r\n    }\r\n    \r\n    /**\r\n     * Function for seting carol's address\r\n     **/\r\n    function setCarolAdd(address carolAdd) public{\r\n        assert(carol == address(0) && alice == msg.sender);\r\n        carol = carolAdd;\r\n    }\r\n    \r\n    \r\n    /**\r\n     * Fucntion for dividing credits into two and debiting \r\n     * carol and bob's accounts by dividing the credit into two\r\n     **/\r\n    function debit(uint credit) public{\r\n        require((msg.sender == alice) && (bob != address(0)) && (carol != address(0)));\r\n        uint amount = credit / 2;\r\n        emit logAccountDebit(msg.sender, credit, amount);\r\n        bobBalance = bobBalance + amount;\r\n        carolBalance = carolBalance + amount;\r\n    }\r\n    \r\n    /**\r\n     * Function for fetching balance of an account \r\n     **/\r\n    function getBalance(address add) view public returns(uint balance) {\r\n        if(bob == add){\r\n            return bobBalance;\r\n        }else if (carol == add){\r\n            return carolBalance;\r\n        }else revert();\r\n        \r\n    }\r\n\r\n    function reset() public{\r\n        require(msg.sender == alice);\r\n        emit logReset(msg.sender,bob,carol);\r\n        bob = address(0);\r\n        carol = address(0);\r\n        bobBalance = 0;\r\n        carolBalance = 0;\r\n    }\r\n    \r\n}",
  "sourcePath": "/mnt/hgfs/Ethereum/Challenges/FundsSplitterContract/contracts/FundsSplitter.sol",
  "compiler": {
    "name": "solc",
    "version": "0.4.24+commit.e67f0147.Emscripten.clang"
  },
  "schemaVersion": "2.0.1",
  "updatedAt": "2018-06-25T15:51:20.945Z"
}