{
  "contractName": "Pausable",
  "abi": [
    {
      "constant": true,
      "inputs": [],
      "name": "paused",
      "outputs": [
        {
          "name": "",
          "type": "bool"
        }
      ],
      "payable": false,
      "stateMutability": "view",
      "type": "function"
    },
    {
      "constant": true,
      "inputs": [],
      "name": "owner",
      "outputs": [
        {
          "name": "",
          "type": "address"
        }
      ],
      "payable": false,
      "stateMutability": "view",
      "type": "function"
    },
    {
      "anonymous": false,
      "inputs": [
        {
          "indexed": false,
          "name": "initiator",
          "type": "address"
        }
      ],
      "name": "LogPause",
      "type": "event"
    },
    {
      "anonymous": false,
      "inputs": [
        {
          "indexed": false,
          "name": "initiator",
          "type": "address"
        }
      ],
      "name": "LogUnPause",
      "type": "event"
    },
    {
      "constant": false,
      "inputs": [],
      "name": "pause",
      "outputs": [],
      "payable": false,
      "stateMutability": "nonpayable",
      "type": "function"
    },
    {
      "constant": false,
      "inputs": [],
      "name": "unpause",
      "outputs": [],
      "payable": false,
      "stateMutability": "nonpayable",
      "type": "function"
    }
  ],
  "bytecode": "0x6080604052336000806101000a81548173ffffffffffffffffffffffffffffffffffffffff021916908373ffffffffffffffffffffffffffffffffffffffff16021790555061050f806100536000396000f300608060405260043610610062576000357c0100000000000000000000000000000000000000000000000000000000900463ffffffff1680633f4ba83a146100675780635c975abb1461007e5780638456cb59146100ad5780638da5cb5b146100c4575b600080fd5b34801561007357600080fd5b5061007c61011b565b005b34801561008a57600080fd5b506100936102e2565b604051808215151515815260200191505060405180910390f35b3480156100b957600080fd5b506100c26102f5565b005b3480156100d057600080fd5b506100d96104be565b604051808273ffffffffffffffffffffffffffffffffffffffff1673ffffffffffffffffffffffffffffffffffffffff16815260200191505060405180910390f35b6000809054906101000a900473ffffffffffffffffffffffffffffffffffffffff1673ffffffffffffffffffffffffffffffffffffffff163373ffffffffffffffffffffffffffffffffffffffff161415156101df576040517f08c379a000000000000000000000000000000000000000000000000000000000815260040180806020018281038252601c8152602001807f5b455230315d20496e76616c6964206f776e657220616464726573730000000081525060200191505060405180910390fd5b600060149054906101000a900460ff161515610263576040517f08c379a000000000000000000000000000000000000000000000000000000000815260040180806020018281038252601d8152602001807f5b455230365d20436f6e7472616374206973206e6f742070617573656400000081525060200191505060405180910390fd5b60008060146101000a81548160ff0219169083151502179055507fba6b1ab6db5108ba754928561df4d9b8d42fa3003d8f810ba24d80c7911010eb33604051808273ffffffffffffffffffffffffffffffffffffffff1673ffffffffffffffffffffffffffffffffffffffff16815260200191505060405180910390a1565b600060149054906101000a900460ff1681565b6000809054906101000a900473ffffffffffffffffffffffffffffffffffffffff1673ffffffffffffffffffffffffffffffffffffffff163373ffffffffffffffffffffffffffffffffffffffff161415156103b9576040517f08c379a000000000000000000000000000000000000000000000000000000000815260040180806020018281038252601c8152602001807f5b455230315d20496e76616c6964206f776e657220616464726573730000000081525060200191505060405180910390fd5b600060149054906101000a900460ff1615151561043e576040517f08c379a00000000000000000000000000000000000000000000000000000000081526004018080602001828103825260198152602001807f5b455230355d20436f6e7472616374206973207061757365640000000000000081525060200191505060405180910390fd5b6001600060146101000a81548160ff0219169083151502179055507f89f564368ff47e464476d722faa29b55ce2a67fd70c8045bd94153879285a6d033604051808273ffffffffffffffffffffffffffffffffffffffff1673ffffffffffffffffffffffffffffffffffffffff16815260200191505060405180910390a1565b6000809054906101000a900473ffffffffffffffffffffffffffffffffffffffff16815600a165627a7a7230582077ac1bfed1857bb5475d68271f9a582da34bff4ec8cb49f6dac0cdd6b9cbfeab0029",
  "source": "pragma solidity ^0.4.24;\r\n\r\nimport \"./Ownable.sol\";\r\n\r\n/**\r\n * @title Contract blueprint for encapstulating Owners information\r\n */\r\ncontract Pausable is Ownable{\r\n\r\n    bool public paused;\r\n\r\n    event LogPause(address initiator);\r\n    event LogUnPause(address initiator);\r\n    /**\r\n     * Modifier to validate if contract is not paused\r\n     */\r\n    modifier whenNotPaused(){\r\n        require(!paused, \"[ER05] Contract is paused\");\r\n        _;\r\n    }\r\n\r\n    /**\r\n     * Modifier to validate if the contract is paused\r\n     */\r\n    modifier whenPaused(){\r\n        require(paused, \"[ER06] Contract is not paused\");\r\n        _;        \r\n    }\r\n\r\n    \r\n    /**\r\n     * Procedure to pause the contract\r\n     */\r\n    function pause() ownerOnly whenNotPaused public{\r\n        paused = true;\r\n        emit LogPause(msg.sender);\r\n    }\r\n\r\n    /**\r\n     * Procedure to unpause the contract\r\n     */\r\n    function unpause() ownerOnly whenPaused public{\r\n        paused = false;\r\n        emit LogUnPause(msg.sender);\r\n    }\r\n\r\n}",
  "sourcePath": "/mnt/hgfs/Ethereum/Challenges/FundsSplitterContract/contracts/Pausable.sol",
  "compiler": {
    "name": "solc",
    "version": "0.4.24+commit.e67f0147.Emscripten.clang"
  },
  "schemaVersion": "2.0.1",
  "updatedAt": "2018-07-11T13:18:38.177Z"
}